{
  "contractName": "Nftease",
  "abi": [
    {
      "inputs": [],
      "payable": false,
      "stateMutability": "nonpayable",
      "type": "constructor"
    },
    {
      "constant": false,
      "inputs": [
        {
          "name": "nname",
          "type": "string"
        },
        {
          "name": "ndisc",
          "type": "string"
        },
        {
          "name": "nimageurl",
          "type": "string"
        },
        {
          "name": "nprice",
          "type": "uint256"
        }
      ],
      "name": "mint",
      "outputs": [],
      "payable": false,
      "stateMutability": "nonpayable",
      "type": "function"
    },
    {
      "constant": true,
      "inputs": [],
      "name": "listasset",
      "outputs": [
        {
          "components": [
            {
              "name": "name",
              "type": "string"
            },
            {
              "name": "discription",
              "type": "string"
            },
            {
              "name": "imageurl",
              "type": "string"
            },
            {
              "name": "id",
              "type": "uint256"
            },
            {
              "name": "price",
              "type": "uint256"
            },
            {
              "name": "timestamp",
              "type": "uint256"
            },
            {
              "name": "asset_holder",
              "type": "address"
            }
          ],
          "name": "",
          "type": "tuple[]"
        }
      ],
      "payable": false,
      "stateMutability": "view",
      "type": "function"
    },
    {
      "constant": false,
      "inputs": [
        {
          "name": "ind",
          "type": "uint256"
        }
      ],
      "name": "buyasset",
      "outputs": [],
      "payable": true,
      "stateMutability": "payable",
      "type": "function"
    }
  ],
  "bytecode": "0x608060405234801561001057600080fd5b5060008081905550610b1a806100276000396000f3fe608060405260043610610057576000357c0100000000000000000000000000000000000000000000000000000000900463ffffffff16806331b6475c1461005c578063395e4daa14610085578063db7fbc25146100b0575b600080fd5b34801561006857600080fd5b50610083600480360361007e919081019061075c565b6100cc565b005b34801561009157600080fd5b5061009a610227565b6040516100a7919061099c565b60405180910390f35b6100ca60048036036100c59190810190610807565b6104e1565b005b6100d46105f9565b60e06040519081016040528086815260200185815260200184815260200160005481526020018381526020014281526020013373ffffffffffffffffffffffffffffffffffffffff16815250905060018190806001815401808255809150509060018203906000526020600020906007020160009091929091909150600082015181600001908051906020019061016c92919061064d565b50602082015181600101908051906020019061018992919061064d565b5060408201518160020190805190602001906101a692919061064d565b50606082015181600301556080820151816004015560a0820151816005015560c08201518160060160006101000a81548173ffffffffffffffffffffffffffffffffffffffff021916908373ffffffffffffffffffffffffffffffffffffffff16021790555050505060008081548092919060010191905055505050505050565b60606001805480602002602001604051908101604052809291908181526020016000905b828210156104d8578382906000526020600020906007020160e06040519081016040529081600082018054600181600116156101000203166002900480601f0160208091040260200160405190810160405280929190818152602001828054600181600116156101000203166002900480156103085780601f106102dd57610100808354040283529160200191610308565b820191906000526020600020905b8154815290600101906020018083116102eb57829003601f168201915b50505050508152602001600182018054600181600116156101000203166002900480601f0160208091040260200160405190810160405280929190818152602001828054600181600116156101000203166002900480156103aa5780601f1061037f576101008083540402835291602001916103aa565b820191906000526020600020905b81548152906001019060200180831161038d57829003601f168201915b50505050508152602001600282018054600181600116156101000203166002900480601f01602080910402602001604051908101604052809291908181526020018280546001816001161561010002031660029004801561044c5780601f106104215761010080835404028352916020019161044c565b820191906000526020600020905b81548152906001019060200180831161042f57829003601f168201915b505050505081526020016003820154815260200160048201548152602001600582015481526020016006820160009054906101000a900473ffffffffffffffffffffffffffffffffffffffff1673ffffffffffffffffffffffffffffffffffffffff1673ffffffffffffffffffffffffffffffffffffffff16815250508152602001906001019061024b565b50505050905090565b6001818154811015156104f057fe5b906000526020600020906007020160040154341015151561051057600080fd5b60018181548110151561051f57fe5b906000526020600020906007020160060160009054906101000a900473ffffffffffffffffffffffffffffffffffffffff1673ffffffffffffffffffffffffffffffffffffffff166108fc349081150290604051600060405180830381858888f19350505050158015610596573d6000803e3d6000fd5b50336001828154811015156105a757fe5b906000526020600020906007020160060160006101000a81548173ffffffffffffffffffffffffffffffffffffffff021916908373ffffffffffffffffffffffffffffffffffffffff16021790555050565b60e060405190810160405280606081526020016060815260200160608152602001600081526020016000815260200160008152602001600073ffffffffffffffffffffffffffffffffffffffff1681525090565b828054600181600116156101000203166002900490600052602060002090601f016020900481019282601f1061068e57805160ff19168380011785556106bc565b828001600101855582156106bc579182015b828111156106bb5782518255916020019190600101906106a0565b5b5090506106c991906106cd565b5090565b6106ef91905b808211156106eb5760008160009055506001016106d3565b5090565b90565b600082601f830112151561070557600080fd5b8135610718610713826109eb565b6109be565b9150808252602083016020830185838301111561073457600080fd5b61073f838284610a8d565b50505092915050565b60006107548235610a83565b905092915050565b6000806000806080858703121561077257600080fd5b600085013567ffffffffffffffff81111561078c57600080fd5b610798878288016106f2565b945050602085013567ffffffffffffffff8111156107b557600080fd5b6107c1878288016106f2565b935050604085013567ffffffffffffffff8111156107de57600080fd5b6107ea878288016106f2565b92505060606107fb87828801610748565b91505092959194509250565b60006020828403121561081957600080fd5b600061082784828501610748565b91505092915050565b61083981610a47565b82525050565b600061084a82610a24565b8084526020840193508360208202850161086385610a17565b60005b8481101561089c57838303885261087e8383516108e3565b925061088982610a3a565b9150602088019750600181019050610866565b508196508694505050505092915050565b60006108b882610a2f565b8084526108cc816020860160208601610a9c565b6108d581610acf565b602085010191505092915050565b600060e083016000830151848203600086015261090082826108ad565b9150506020830151848203602086015261091a82826108ad565b9150506040830151848203604086015261093482826108ad565b9150506060830151610949606086018261098d565b50608083015161095c608086018261098d565b5060a083015161096f60a086018261098d565b5060c083015161098260c0860182610830565b508091505092915050565b61099681610a79565b82525050565b600060208201905081810360008301526109b6818461083f565b905092915050565b6000604051905081810181811067ffffffffffffffff821117156109e157600080fd5b8060405250919050565b600067ffffffffffffffff821115610a0257600080fd5b601f19601f8301169050602081019050919050565b6000602082019050919050565b600081519050919050565b600081519050919050565b6000602082019050919050565b6000610a5282610a59565b9050919050565b600073ffffffffffffffffffffffffffffffffffffffff82169050919050565b6000819050919050565b6000819050919050565b82818337600083830152505050565b60005b83811015610aba578082015181840152602081019050610a9f565b83811115610ac9576000848401525b50505050565b6000601f19601f830116905091905056fea265627a7a723058207122d0ef576b311ef7e95cd2d748b5398d185108cc58ee6723b4158ed1b128b06c6578706572696d656e74616cf50037",
  "source": "// SPDX-License-Identifier: MIT\npragma solidity >=0.5.0 <0.9.0;\npragma experimental ABIEncoderV2;\n\ncontract Nftease {\n  uint counter;\n  asset[] allassets;\n  struct asset{\n    string name;\n    string discription;\n    string imageurl;\n    uint id;\n    uint price;\n    uint timestamp;\n    address payable asset_holder;\n  }\n  constructor() public {\n    counter =0;\n  }\n\n  function mint(string memory nname, string memory ndisc, string memory nimageurl, uint nprice ) public {\n    asset memory newasset = asset(nname, ndisc, nimageurl, counter, nprice, block.timestamp, msg.sender);\n    allassets.push(newasset);\n    counter++;\n  }\n\n  function listasset() public view returns(asset[] memory){\n    return allassets;\n  }\n\n    function buyasset(uint ind) public payable {\n    require(msg.value >= allassets[ind].price);\n    (allassets[ind].asset_holder).transfer(msg.value);\n    allassets[ind].asset_holder = msg.sender;\n  }\n\n  \n}\n",
  "sourcePath": "C:\\Users\\IDEAPADS145\\OneDrive\\Desktop\\programmmms\\NFTea-e\\contracts\\Nftease.sol",
  "compiler": {
    "name": "solc",
    "version": "0.5.0+commit.1d4f565a.Emscripten.clang"
  },
  "schemaVersion": "3.4.16",
  "updatedAt": "2024-03-05T13:04:34.122Z",
  "networkType": "ethereum",
  "devdoc": {
    "methods": {}
  },
  "userdoc": {
    "methods": {}
  }
}