{
  "contractName": "Nftease",
  "abi": [
    {
      "inputs": [],
      "payable": false,
      "stateMutability": "nonpayable",
      "type": "constructor"
    },
    {
      "constant": false,
      "inputs": [
        {
          "name": "nname",
          "type": "string"
        },
        {
          "name": "ndisc",
          "type": "string"
        },
        {
          "name": "nimageurl",
          "type": "string"
        },
        {
          "name": "nprice",
          "type": "uint256"
        }
      ],
      "name": "mint",
      "outputs": [],
      "payable": false,
      "stateMutability": "nonpayable",
      "type": "function"
    },
    {
      "constant": true,
      "inputs": [],
      "name": "listasset",
      "outputs": [
        {
          "components": [
            {
              "name": "name",
              "type": "string"
            },
            {
              "name": "discription",
              "type": "string"
            },
            {
              "name": "imageurl",
              "type": "string"
            },
            {
              "name": "id",
              "type": "uint256"
            },
            {
              "name": "price",
              "type": "uint256"
            },
            {
              "name": "timestamp",
              "type": "uint256"
            },
            {
              "name": "asset_holder",
              "type": "address"
            }
          ],
          "name": "",
          "type": "tuple[]"
        }
      ],
      "payable": false,
      "stateMutability": "view",
      "type": "function"
    }
  ],
  "bytecode": "0x608060405234801561001057600080fd5b50600080819055506109b2806100276000396000f3fe60806040526004361061004c576000357c0100000000000000000000000000000000000000000000000000000000900463ffffffff16806331b6475c14610051578063395e4daa1461007a575b600080fd5b34801561005d57600080fd5b506100786004803603610073919081019061061d565b6100a5565b005b34801561008657600080fd5b5061008f610200565b60405161009c9190610834565b60405180910390f35b6100ad6104ba565b60e06040519081016040528086815260200185815260200184815260200160005481526020018381526020014281526020013373ffffffffffffffffffffffffffffffffffffffff16815250905060018190806001815401808255809150509060018203906000526020600020906007020160009091929091909150600082015181600001908051906020019061014592919061050e565b50602082015181600101908051906020019061016292919061050e565b50604082015181600201908051906020019061017f92919061050e565b50606082015181600301556080820151816004015560a0820151816005015560c08201518160060160006101000a81548173ffffffffffffffffffffffffffffffffffffffff021916908373ffffffffffffffffffffffffffffffffffffffff16021790555050505060008081548092919060010191905055505050505050565b60606001805480602002602001604051908101604052809291908181526020016000905b828210156104b1578382906000526020600020906007020160e06040519081016040529081600082018054600181600116156101000203166002900480601f0160208091040260200160405190810160405280929190818152602001828054600181600116156101000203166002900480156102e15780601f106102b6576101008083540402835291602001916102e1565b820191906000526020600020905b8154815290600101906020018083116102c457829003601f168201915b50505050508152602001600182018054600181600116156101000203166002900480601f0160208091040260200160405190810160405280929190818152602001828054600181600116156101000203166002900480156103835780601f1061035857610100808354040283529160200191610383565b820191906000526020600020905b81548152906001019060200180831161036657829003601f168201915b50505050508152602001600282018054600181600116156101000203166002900480601f0160208091040260200160405190810160405280929190818152602001828054600181600116156101000203166002900480156104255780601f106103fa57610100808354040283529160200191610425565b820191906000526020600020905b81548152906001019060200180831161040857829003601f168201915b505050505081526020016003820154815260200160048201548152602001600582015481526020016006820160009054906101000a900473ffffffffffffffffffffffffffffffffffffffff1673ffffffffffffffffffffffffffffffffffffffff1673ffffffffffffffffffffffffffffffffffffffff168152505081526020019060010190610224565b50505050905090565b60e060405190810160405280606081526020016060815260200160608152602001600081526020016000815260200160008152602001600073ffffffffffffffffffffffffffffffffffffffff1681525090565b828054600181600116156101000203166002900490600052602060002090601f016020900481019282601f1061054f57805160ff191683800117855561057d565b8280016001018555821561057d579182015b8281111561057c578251825591602001919060010190610561565b5b50905061058a919061058e565b5090565b6105b091905b808211156105ac576000816000905550600101610594565b5090565b90565b600082601f83011215156105c657600080fd5b81356105d96105d482610883565b610856565b915080825260208301602083018583830111156105f557600080fd5b610600838284610925565b50505092915050565b6000610615823561091b565b905092915050565b6000806000806080858703121561063357600080fd5b600085013567ffffffffffffffff81111561064d57600080fd5b610659878288016105b3565b945050602085013567ffffffffffffffff81111561067657600080fd5b610682878288016105b3565b935050604085013567ffffffffffffffff81111561069f57600080fd5b6106ab878288016105b3565b92505060606106bc87828801610609565b91505092959194509250565b6106d1816108df565b82525050565b60006106e2826108bc565b808452602084019350836020820285016106fb856108af565b60005b8481101561073457838303885261071683835161077b565b9250610721826108d2565b91506020880197506001810190506106fe565b508196508694505050505092915050565b6000610750826108c7565b808452610764816020860160208601610934565b61076d81610967565b602085010191505092915050565b600060e08301600083015184820360008601526107988282610745565b915050602083015184820360208601526107b28282610745565b915050604083015184820360408601526107cc8282610745565b91505060608301516107e16060860182610825565b5060808301516107f46080860182610825565b5060a083015161080760a0860182610825565b5060c083015161081a60c08601826106c8565b508091505092915050565b61082e81610911565b82525050565b6000602082019050818103600083015261084e81846106d7565b905092915050565b6000604051905081810181811067ffffffffffffffff8211171561087957600080fd5b8060405250919050565b600067ffffffffffffffff82111561089a57600080fd5b601f19601f8301169050602081019050919050565b6000602082019050919050565b600081519050919050565b600081519050919050565b6000602082019050919050565b60006108ea826108f1565b9050919050565b600073ffffffffffffffffffffffffffffffffffffffff82169050919050565b6000819050919050565b6000819050919050565b82818337600083830152505050565b60005b83811015610952578082015181840152602081019050610937565b83811115610961576000848401525b50505050565b6000601f19601f830116905091905056fea265627a7a7230582078588935c5e75eb8d8907332388eead4a2253d38be9f92a6bd5cb11bf479bdb16c6578706572696d656e74616cf50037",
  "source": "// SPDX-License-Identifier: MIT\npragma solidity >=0.5.0 <0.9.0;\npragma experimental ABIEncoderV2;\n\ncontract Nftease {\n  uint counter;\n  asset[] allassets;\n  struct asset{\n    string name;\n    string discription;\n    string imageurl;\n    uint id;\n    uint price;\n    uint timestamp;\n    address asset_holder;\n  }\n  constructor() public {\n    counter =0;\n  }\n\n  function mint(string memory nname, string memory ndisc, string memory nimageurl, uint nprice ) public {\n    asset memory newasset = asset(nname, ndisc, nimageurl, counter, nprice, block.timestamp, msg.sender);\n    allassets.push(newasset);\n    counter++;\n  }\n\n  function listasset() public view returns(asset[] memory){\n    return allassets;\n  }\n\n  \n}\n",
  "sourcePath": "C:\\Users\\IDEAPADS145\\OneDrive\\Desktop\\programmmms\\NFTea-e\\contracts\\Nftease.sol",
  "compiler": {
    "name": "solc",
    "version": "0.5.0+commit.1d4f565a.Emscripten.clang"
  },
  "schemaVersion": "3.4.16",
  "updatedAt": "2024-03-05T11:54:37.645Z",
  "networkType": "ethereum",
  "devdoc": {
    "methods": {}
  },
  "userdoc": {
    "methods": {}
  }
}