{
  "contractName": "Nftease",
  "abi": [
    {
      "constant": true,
      "inputs": [],
      "name": "counter",
      "outputs": [
        {
          "name": "",
          "type": "uint256"
        }
      ],
      "payable": false,
      "stateMutability": "view",
      "type": "function"
    },
    {
      "inputs": [],
      "payable": false,
      "stateMutability": "nonpayable",
      "type": "constructor"
    },
    {
      "constant": false,
      "inputs": [
        {
          "name": "nname",
          "type": "string"
        },
        {
          "name": "ndisc",
          "type": "string"
        },
        {
          "name": "nimageurl",
          "type": "string"
        },
        {
          "name": "nprice",
          "type": "uint256"
        }
      ],
      "name": "mint",
      "outputs": [],
      "payable": false,
      "stateMutability": "nonpayable",
      "type": "function"
    },
    {
      "constant": true,
      "inputs": [],
      "name": "listasset",
      "outputs": [
        {
          "components": [
            {
              "name": "name",
              "type": "string"
            },
            {
              "name": "discription",
              "type": "string"
            },
            {
              "name": "imageurl",
              "type": "string"
            },
            {
              "name": "id",
              "type": "uint256"
            },
            {
              "name": "price",
              "type": "uint256"
            },
            {
              "name": "timestamp",
              "type": "uint256"
            },
            {
              "name": "asset_holder",
              "type": "address"
            }
          ],
          "name": "",
          "type": "tuple[]"
        }
      ],
      "payable": false,
      "stateMutability": "view",
      "type": "function"
    },
    {
      "constant": false,
      "inputs": [
        {
          "name": "ind",
          "type": "uint256"
        }
      ],
      "name": "buyasset",
      "outputs": [],
      "payable": true,
      "stateMutability": "payable",
      "type": "function"
    },
    {
      "constant": true,
      "inputs": [],
      "name": "counterval",
      "outputs": [
        {
          "name": "",
          "type": "uint256"
        }
      ],
      "payable": false,
      "stateMutability": "view",
      "type": "function"
    }
  ],
  "bytecode": "0x608060405234801561001057600080fd5b5060008081905550610bb0806100276000396000f3fe60806040526004361061006d576000357c0100000000000000000000000000000000000000000000000000000000900463ffffffff16806331b6475c14610072578063395e4daa1461009b5780633f565b06146100c657806361bc221a146100f1578063db7fbc251461011c575b600080fd5b34801561007e57600080fd5b50610099600480360361009491908101906107d7565b610138565b005b3480156100a757600080fd5b506100b0610293565b6040516100bd9190610a17565b60405180910390f35b3480156100d257600080fd5b506100db61054d565b6040516100e89190610a39565b60405180910390f35b3480156100fd57600080fd5b50610106610556565b6040516101139190610a39565b60405180910390f35b61013660048036036101319190810190610882565b61055c565b005b610140610674565b60e06040519081016040528086815260200185815260200184815260200160005481526020018381526020014281526020013373ffffffffffffffffffffffffffffffffffffffff1681525090506001819080600181540180825580915050906001820390600052602060002090600702016000909192909190915060008201518160000190805190602001906101d89291906106c8565b5060208201518160010190805190602001906101f59291906106c8565b5060408201518160020190805190602001906102129291906106c8565b50606082015181600301556080820151816004015560a0820151816005015560c08201518160060160006101000a81548173ffffffffffffffffffffffffffffffffffffffff021916908373ffffffffffffffffffffffffffffffffffffffff16021790555050505060008081548092919060010191905055505050505050565b60606001805480602002602001604051908101604052809291908181526020016000905b82821015610544578382906000526020600020906007020160e06040519081016040529081600082018054600181600116156101000203166002900480601f0160208091040260200160405190810160405280929190818152602001828054600181600116156101000203166002900480156103745780601f1061034957610100808354040283529160200191610374565b820191906000526020600020905b81548152906001019060200180831161035757829003601f168201915b50505050508152602001600182018054600181600116156101000203166002900480601f0160208091040260200160405190810160405280929190818152602001828054600181600116156101000203166002900480156104165780601f106103eb57610100808354040283529160200191610416565b820191906000526020600020905b8154815290600101906020018083116103f957829003601f168201915b50505050508152602001600282018054600181600116156101000203166002900480601f0160208091040260200160405190810160405280929190818152602001828054600181600116156101000203166002900480156104b85780601f1061048d576101008083540402835291602001916104b8565b820191906000526020600020905b81548152906001019060200180831161049b57829003601f168201915b505050505081526020016003820154815260200160048201548152602001600582015481526020016006820160009054906101000a900473ffffffffffffffffffffffffffffffffffffffff1673ffffffffffffffffffffffffffffffffffffffff1673ffffffffffffffffffffffffffffffffffffffff1681525050815260200190600101906102b7565b50505050905090565b60008054905090565b60005481565b60018181548110151561056b57fe5b906000526020600020906007020160040154341015151561058b57600080fd5b60018181548110151561059a57fe5b906000526020600020906007020160060160009054906101000a900473ffffffffffffffffffffffffffffffffffffffff1673ffffffffffffffffffffffffffffffffffffffff166108fc349081150290604051600060405180830381858888f19350505050158015610611573d6000803e3d6000fd5b503360018281548110151561062257fe5b906000526020600020906007020160060160006101000a81548173ffffffffffffffffffffffffffffffffffffffff021916908373ffffffffffffffffffffffffffffffffffffffff16021790555050565b60e060405190810160405280606081526020016060815260200160608152602001600081526020016000815260200160008152602001600073ffffffffffffffffffffffffffffffffffffffff1681525090565b828054600181600116156101000203166002900490600052602060002090601f016020900481019282601f1061070957805160ff1916838001178555610737565b82800160010185558215610737579182015b8281111561073657825182559160200191906001019061071b565b5b5090506107449190610748565b5090565b61076a91905b8082111561076657600081600090555060010161074e565b5090565b90565b600082601f830112151561078057600080fd5b813561079361078e82610a81565b610a54565b915080825260208301602083018583830111156107af57600080fd5b6107ba838284610b23565b50505092915050565b60006107cf8235610b19565b905092915050565b600080600080608085870312156107ed57600080fd5b600085013567ffffffffffffffff81111561080757600080fd5b6108138782880161076d565b945050602085013567ffffffffffffffff81111561083057600080fd5b61083c8782880161076d565b935050604085013567ffffffffffffffff81111561085957600080fd5b6108658782880161076d565b9250506060610876878288016107c3565b91505092959194509250565b60006020828403121561089457600080fd5b60006108a2848285016107c3565b91505092915050565b6108b481610add565b82525050565b60006108c582610aba565b808452602084019350836020820285016108de85610aad565b60005b848110156109175783830388526108f983835161095e565b925061090482610ad0565b91506020880197506001810190506108e1565b508196508694505050505092915050565b600061093382610ac5565b808452610947816020860160208601610b32565b61095081610b65565b602085010191505092915050565b600060e083016000830151848203600086015261097b8282610928565b915050602083015184820360208601526109958282610928565b915050604083015184820360408601526109af8282610928565b91505060608301516109c46060860182610a08565b5060808301516109d76080860182610a08565b5060a08301516109ea60a0860182610a08565b5060c08301516109fd60c08601826108ab565b508091505092915050565b610a1181610b0f565b82525050565b60006020820190508181036000830152610a3181846108ba565b905092915050565b6000602082019050610a4e6000830184610a08565b92915050565b6000604051905081810181811067ffffffffffffffff82111715610a7757600080fd5b8060405250919050565b600067ffffffffffffffff821115610a9857600080fd5b601f19601f8301169050602081019050919050565b6000602082019050919050565b600081519050919050565b600081519050919050565b6000602082019050919050565b6000610ae882610aef565b9050919050565b600073ffffffffffffffffffffffffffffffffffffffff82169050919050565b6000819050919050565b6000819050919050565b82818337600083830152505050565b60005b83811015610b50578082015181840152602081019050610b35565b83811115610b5f576000848401525b50505050565b6000601f19601f830116905091905056fea265627a7a72305820612df408ad21b0322a42dc623512fa835d042c0c4831bb304f777b8257820eaa6c6578706572696d656e74616cf50037",
  "source": "// SPDX-License-Identifier: MIT\r\npragma solidity >=0.5.0 <0.9.0;\r\npragma experimental ABIEncoderV2;\r\n\r\ncontract Nftease {\r\n  uint256 public counter;\r\n  asset[] allassets;\r\n  struct asset{\r\n    string name;\r\n    string discription;\r\n    string imageurl;\r\n    uint id;\r\n    uint price;\r\n    uint timestamp;\r\n    address payable asset_holder;\r\n  }\r\n  constructor() public {\r\n    counter =0;\r\n  }\r\n\r\n  function mint(string memory nname, string memory ndisc, string memory nimageurl, uint nprice ) public {\r\n    asset memory newasset = asset(nname, ndisc, nimageurl, counter, nprice, block.timestamp, msg.sender);\r\n    allassets.push(newasset);\r\n    counter++;\r\n  }\r\n\r\n  function listasset() public view returns(asset[] memory){\r\n    return allassets;\r\n  }\r\n\r\n    function buyasset(uint ind) public payable {\r\n    require(msg.value >= allassets[ind].price);\r\n    (allassets[ind].asset_holder).transfer(msg.value);\r\n    allassets[ind].asset_holder = msg.sender;\r\n  }\r\n\r\n  function counterval() public view returns(uint256){\r\n    return counter;\r\n  }\r\n\r\n  \r\n}",
  "sourcePath": "C:\\Users\\IDEAPADS145\\OneDrive\\Desktop\\programmmms\\NFTea-e\\contracts\\Nftease.sol",
  "compiler": {
    "name": "solc",
    "version": "0.5.0+commit.1d4f565a.Emscripten.clang"
  },
  "schemaVersion": "3.4.16",
  "updatedAt": "2024-03-06T20:09:56.565Z",
  "networkType": "ethereum",
  "devdoc": {
    "methods": {}
  },
  "userdoc": {
    "methods": {}
  }
}